:100000006F00C00813000000130000001300000080
:100010001300000013000000130000001300000094
:100020001300000013000000130000001300000084
:100030001300000013000000130000001300000074
:100040001300000013000000130000001300000064
:1000500013000000130000006F00000C6F00400D43
:100060006F00800E6F00C00F6F0000116F00401214
:100070006F0000156F0040136F0080176F00C015F0
:0C0080006F00C0006F0040186F00801976
:10008C007310503093000000138100009381000026
:10009C0013820000938200001383000093830000FE
:1000AC0013840000938400001385000093850000E6
:1000BC0013860000938600001387000093870000CE
:1000CC0017411000130141F3170710001307470BDA
:1000DC00970710009387C70A6358F700232007007F
:1000EC0013074700E3DCE7FE13050000930510003F
:1000FC00EF1050571305000093050000EF0090140B
:10010C0013040500EF10D07413050400130101FA59
:10011C00232E1104EF0080119700000093804014EF
:10012C006F004058130101FA232E1104EF00001048
:10013C00970000009380C0126F00C057130101FAA2
:10014C00232E1104EF00800E9700000093804011C5
:10015C006F004057130101FA232E1104EF00000D1C
:10016C00970000009380C00F6F00C056130101FA76
:10017C00232E1104EF00800B970000009380400E9B
:10018C006F004056130101FA232E1104EF00000AF0
:10019C00970000009380C00C6F00C055130101FA4A
:1001AC00232E1104EF008008970000009380400B71
:1001BC006F004056130101FA232E1104EF000007C3
:1001CC00970000009380C0096F00C053130101FA1F
:1001DC00232E1104EF008005970000009380400847
:1001EC006F004055130101FA232E1104EF00000497
:1001FC00970000009380C0066F00C052130101FAF3
:10020C00232E1104EF00800297000000938040051C
:10021C006F008009130101FA232E1104EF00000175
:10022C00970000009380C0036F0000092320310069
:10023C00232241002324510023266100232871002E
:10024C00232AA100232CB100232EC1002320D1028C
:10025C002322E1022324F1026780000083210100A4
:10026C0003224100832281000323C1008323010167
:10027C0003254101832581010326C1018326010247
:10028C0003274102832781028320C1051301010644
:10029C007300203067800000130101FF23268100CA
:1002AC00130401016F000000130101FF23268100DC
:1002BC00130401016F000000130101FF23268100CC
:1002CC00130401016F000000130101FD23268102BC
:1002DC0013040103232EA4FC232CB4FCB777101AAF
:1002EC0083A707002326F4FE8327C4FD1307100001
:1002FC00B317F70013C7F7FF8327C4FEB377F700D4
:10030C002326F4FE8327C4FD032784FD3317F7004F
:10031C008327C4FEB367F7002326F4FEB777101AC1
:10032C000327C4FE23A0E700130000000324C1022E
:10033C001301010367800000130101FD23268102D4
:10034C0013040103232EA4FCB777101A83A707000C
:10035C002326F4FE0327C4FE8327C4FDB357F740BE
:10036C0093F717002326F4FE8327C4FE138507009A
:10037C000324C1021301010367800000130101FD76
:10038C002326810213040103232EA4FC232CB4FC8A
:10039C00B717101A83A707002326F4FE832784FDC2
:1003AC00639207028327C4FD13071000B317F700ED
:1003BC0013C7F7FF8327C4FEB377F7002326F4FE99
:1003CC006F00C0018327C4FD130710003317F7001B
:1003DC008327C4FEB367F7002326F4FEB717101A61
:1003EC000327C4FE23A0E700130000000324C1026E
:1003FC001301010367800000130101FD2326810214
:10040C0013040103232EA4FCB717101A83A70700AB
:10041C002326F4FE0327C4FE8327C4FD93971700FD
:10042C00B357F74093F717002326F4FE8327C4FE37
:10043C00138507000324C102130101036780000028
:10044C00130101FD2326810213040103232EA4FCB6
:10045C00232CB4FCB717101A9387870083A70700C7
:10046C002326F4FE832784FD639207028327C4FDB1
:10047C0013071000B317F70013C7F7FF8327C4FE49
:10048C00B377F7002326F4FE6F00C0018327C4FD69
:10049C00130710003317F7008327C4FEB367F70068
:1004AC002326F4FEB717101A938787000327C4FE80
:1004BC0023A0E700130000000324C1021301010371
:1004CC0067800000130101FD232681021304010340
:1004DC00232EA4FCB717101A9387470083A7070095
:1004EC002326F4FE0327C4FE8327C4FDB357F7402D
:1004FC0093F717002326F4FE8327C4FE1385070009
:10050C000324C1021301010367800000130101FDE4
:10051C002326810213040103232EA4FC232CB4FCF8
:10052C00B717101A9387C70083A707002326F4FE7A
:10053C00832784FD639207028327C4FD13071000F1
:10054C00B317F70093C7F7FF0327C4FEB377F70081
:10055C002326F4FE6F00C0018327C4FD130710008F
:10056C00B317F7000327C4FEB367F7002326F4FE86
:10057C00B717101A9387C7000327C4FE23A0E70000
:10058C00130000000324C102130101036780000063
:10059C00130101FD2326810213040103232EA4FC65
:1005AC00232CB4FCB717101A9387070183A70700F5
:1005BC002326F4FEB717101A9387470183A7070069
:1005CC002324F4FE832784FD93F71700639207021C
:1005DC008327C4FD13071000B317F70093C7F7FF69
:1005EC000327C4FEB377F7002326F4FE6F00C00187
:1005FC008327C4FD13071000B317F7000327C4FEAD
:10060C00B367F7002326F4FE832784FD93F72700B6
:10061C00639207028327C4FD13071000B317F7007A
:10062C0093C7F7FF032784FEB377F7002324F4FE68
:10063C006F00C0018327C4FD13071000B317F70028
:10064C00032784FEB367F7002324F4FEB717101AB0
:10065C00938707010327C4FE23A0E700B717101ADE
:10066C0093874701032784FE23A0E70013000000B3
:10067C000324C1021301010367800000130101FF71
:10068C002326810013040101B717101A93878701E1
:10069C0083A70700138507000324C1001301010180
:1006AC0067800000130101FF232681001304010160
:1006BC006F000000130101FF2326810013040101C8
:1006CC006F000000130101FF2326810013040101B8
:1006DC006F000000130101FF2326810013040101A8
:1006EC006F000000130101FF232681001304010198
:1006FC006F000000130101FF232681001304010188
:10070C006F000000130101FF232681001304010177
:10071C006F000000130101FF232681001304010167
:10072C006F000000130101FF232681001304010157
:10073C006F000000130101FF232681001304010147
:10074C006F000000130101FF2326110023248100F8
:10075C00130401019305000013050000EF10C03DC8
:10076C00930600001306000093058000130560003B
:10077C00EF10803313050000EF10004193050000CB
:10078C0013051000EF10C046130000008320C100B9
:10079C00032481001301010167800000130101FF94
:1007AC00232611002324810013040101930500006A
:1007BC0013050000EF1040389306000013060000EC
:1007CC009305800013054000EF10002E1305000068
:1007DC00EF10803B9305000013051000EF10404113
:1007EC00130000008320C1000324810013010101C8
:1007FC0067800000130101FE232E1100232C8100C1
:10080C0013040102232604FE9305000013050000C7
:10081C00EF10803293060000130600009305800051
:10082C0013055000EF10402813058000EF10C03561
:10083C009305000013050000EF10803B9307C4FEE6
:10084C009305800013850700EF10804D8327C4FEAD
:10085C0093F71700138507008320C101032481013E
:10086C001301010267800000130101FE232E110009
:10087C00232C8100130401022326A4FE93050000FF
:10088C0013050000EF10402B930680010326C4FED5
:10089C00930580001305800DEF1000211305000057
:1008AC00EF10802E9305000013051000EF1040345C
:1008BC00130000008320C1010324810113010102F4
:1008CC0067800000130101FF2326110023248100FF
:1008DC00130401019305000013050000EF10C0255F
:1008EC009306000013060000930580001305700C9E
:1008FC00EF10801B13050000EF100029930500007A
:10090C0013051000EF10C02E130000008320C1004F
:10091C00032481001301010167800000130101FE13
:10092C00232E1100232C8100130401022326A4FE84
:10093C002324B4FEEFF01FE1930500001305000023
:10094C00EF10801F930680010326C4FE93058000E0
:10095C0013052000EF10401513050002EF10C02204
:10096C00930784FE9305000213850700EF10C03037
:10097C009305000013051000EF10802713000000F2
:10098C00EFF05FE793070500E39C07FEEFF01FE134
:10099C0013000000EFF01FE693070500E39C07FE31
:1009AC0013000000130000008320C1010324810107
:1009BC001301010267800000130101FE232E1100B8
:1009CC00232C8100130401022326A4FE2324B4FE4D
:1009DC009305000013054000EF10802193050000E3
:1009EC0013050000EF104015930680010326C4FE8A
:1009FC009305800013053000EF10000B1305000267
:100A0C00EF1080189305000013050000EF10401E36
:100A1C0093050002032584FEEF10803013000000C4
:100A2C00EFF05FDD93070500E39C07FE1300000069
:100A3C00130000008320C101032481011301010272
:100A4C0067800000130101FB232611042324810479
:100A5C0013040105232E04FA232004FC230204FCB6
:100A6C00232C04FA13051000EF00D0789305C00076
:100A7C0013050000EF10003F232604FE6F00000357
:100A8C00930510000325C4FEEFF05F8F8327C4FE8F
:100A9C0093F71700938507000325C4FEEFF05F9AC8
:100AAC008327C4FE938717002326F4FE0327C4FE76
:100ABC0093077000E3D6E7FC13000000EF108050A2
:100ACC00930705001387070093073007E318F7FE19
:100ADC009305D000B707100013850701EF100045F0
:100AEC00B727101A938747001307400023A0E7008D
:100AFC00B707100083A7471893850700B7071000A6
:100B0C0013850702EF00D035B70710001307401408
:100B1C0023A2E718B707100083A74718938507008F
:100B2C00B70710001385C702EF0090339305F0014F
:100B3C00B707100013858703EF10403F232404FEF2
:100B4C006F000001832784FE938717002324F4FE93
:100B5C00032784FEB7170000938777BBE3D4E7FE27
:100B6C009305000013058001EF00107D9306000033
:100B7C0013060000930580001305B00AEF00D07235
:100B8C0013058000EF1040009305000013050000D2
:100B9C00EF100006930784FC930580001385070073
:100BAC00EF100018832784FC138707009307C4FBFE
:100BBC009305070013850700EF00801E9307C4FB05
:100BCC009305800013850700EF1040369305100045
:100BDC00B707100013858705EF104035EF1040471D
:100BEC00232404FC93059000B70710001385C70558
:100BFC00EF10C033EF10C045930500001305000043
:100C0C00EF0090739306000013060000930580001C
:100C1C001305F009EF00506913058001EF00D07641
:100C2C009305000013050000EF00907C930784FCF3
:100C3C009305800113850700EF10800E832784FC39
:100C4C00138707009307C4FB930507001385070060
:100C5C00EF0000159307C4FB9305A0001385070054
:100C6C00EF10C02C93053000B707100013858706D2
:100C7C00EF10C02B93057001B70710001385C70642
:100C8C00EF10C02AEF10C03C232404FC9305000095
:100C9C0013050001EF00506A930680001306000054
:100CAC009305800013050009EF0010601305000187
:100CBC00EF00906D9305000013050000EF005073DA
:100CCC00930784FC9305000113850700EF10400582
:100CDC00832784FC138707009307C4FB9305070045
:100CEC0013850700EF00C00B9307C4FB930580002E
:100CFC0013850700EF10802393053000B707100011
:100D0C0013858706EF108022EFF0DFA3B7071000E2
:100D1C0013854708EF00101C13050000EFF0DFB43B
:100D2C0013000000EFF01FAD93070500E39C07FED6
:100D3C00B707100013858709EF00D019B70710000B
:100D4C001385C70AEF001019B757341293858767BC
:100D5C0013050000EFF09FBCB70710001385070DBB
:100D6C00EF005017930784FB9385070013050000D1
:100D7C00EFF09FC4832784FB93850700B70710000F
:100D8C001385070EEF00D00D9307000013850700A5
:100D9C008320C10403248104130101056780000032
:100DAC00130101FD2326810213040103232EA4FC4D
:100DBC00232CB4FC232604FE6F00C0041307700020
:100DCC008327C4FEB307F74093972700032784FDBE
:100DDC00B357F70013F7F7008327C4FE8326C4FD2F
:100DEC00B387F600B7061000938606003387E6003B
:100DFC00034707002380E7008327C4FE938717006F
:100E0C002326F4FE0327C4FE93077000E3D8E7FA09
:100E1C008327C4FD938787002380070013000000FD
:100E2C000324C1021301010367800000130101FDBB
:100E3C002326810213040103232EA4FC8327C4FD63
:100E4C0013D717008327C4FD93D72700B307F700E8
:100E5C002326F4FE8327C4FE93D747000327C4FE42
:100E6C00B307F7002326F4FE8327C4FE93D787002D
:100E7C000327C4FEB307F7002326F4FE8327C4FE22
:100E8C0093D707010327C4FEB307F7002326F4FE0C
:100E9C008327C4FE93D737002326F4FE0327C4FE12
:100EAC009307070093972700B387E70093971700E2
:100EBC00138707008327C4FDB387E7402324F4FE80
:100ECC00832784FE9387670013D747008327C4FECC
:100EDC00B307F700138507000324C10213010103B4
:100EEC0067800000130101FE232E81001304010210
:100EFC002326A4FE0327C4FEB7A7991993879799B5
:100F0C003307F7028327C4FE93D717003307F70084
:100F1C008327C4FE93D73700B307F70093D7C701D5
:100F2C002326F4FEB7071000138747178327C4FE48
:100F3C00B307F70083C70700138507000324C1011B
:100F4C001301010267800000130101FE232E110022
:100F5C00232C8100130401022326A4FE8327C4FE44
:100F6C0093F7F70F13850700EF10000A8327C4FED1
:100F7C00138507008320C1010324810113010102A1
:100F8C0067800000130101FE232E1100232C810029
:100F9C00130401022326A4FE2324B4FE8327C4FEDB
:100FAC00638807028327C4FE83A70700032784FEF8
:100FBC001377F70F2380E7008327C4FE83A707006E
:100FCC00138717008327C4FE23A0E7006F0040019E
:100FDC00832784FE93F7F70F13850700EFF0DFF6F6
:100FEC00130000008320C1010324810113010102BD
:100FFC0067800000130101FD2326110223248102C6
:10100C002322910223202103232E3101232C410181
:10101C0013040103232EA4FC232CB4FC232AC4FCAC
:10102C002328D4FC93040000130A0002832744FDF8
:10103C006356F00413090000832984FD6F00C0007F
:10104C00130919009389190083C70900E39A07FE55
:10105C00832744FD6346F900232A04FC6F0000013A
:10106C00832744FDB3872741232AF4FC832704FDFF
:10107C0093F7270063840700130A0003832704FDFA
:10108C0093F71700639A07046F00000293050A0098
:10109C000325C4FDEFF01FEF93841400832744FD58
:1010AC009387F7FF232AF4FC832744FDE340F0FEEB
:1010BC006F008002832784FD83C707009385070098
:1010CC000325C4FDEFF01FEC93841400832784FDEB
:1010DC0093871700232CF4FC832784FD83C7070018
:1010EC00E39A07FC6F00000293050A000325C4FD78
:1010FC00EFF05FE993841400832744FD9387F7FF97
:10110C00232AF4FC832744FDE340F0FE938704007C
:10111C00138507008320C10203248102832441022A
:10112C00032901028329C101032A8101130101034F
:10113C0067800000130101F9232611062324810680
:10114C002322910623202107232E310513040107A6
:10115C002326A4FA2324B4FA2322C4FA2320D4FA93
:10116C00232EE4F8232CF4F893070800A30BF4F8CF
:10117C009309000013090000832784FA232EF4FC42
:10118C00832784FA6398070293070003230CF4FA6D
:10119C00A30C04FA930784FB832684F90326C4F971
:1011AC00938507000325C4FAEFF0DFE493070500ED
:1011BC006F00C013832704FA63840702032744FAE1
:1011CC009307A000631EF700832784FA63DA0700F5
:1011DC0093091000832784FAB307F040232EF4FC04
:1011EC00930484FB9384F40123800400032744FAC2
:1011FC00930700016318F7086F0040058327C4FDAF
:10120C0093F7F700232CF4FC032784FD930790003D
:10121C0063DCE700834774F9938767FC032784FD3D
:10122C00B307F700232CF4FC832784FD93F7F70F07
:10123C009384F4FF9387070393F7F70F2380F4004D
:10124C008327C4FD93D74700232EF4FC8327C4FDCA
:10125C00E39607FA6F0080030325C4FDEFF09FC8E7
:10126C009307050093F7F70F9384F4FF9387070315
:10127C0093F7F70F2380F4000325C4FDEFF01FBB99
:10128C00232EA4FC8327C4FDE39807FC6382090486
:10129C008327C4F963880702832784F993F727000F
:1012AC00638207029305D0020325C4FAEFF09FCDA9
:1012BC00130919008327C4F99387F7FF232EF4F839
:1012CC006F0000019384F4FF9307D0022380F40095
:1012DC00832684F90326C4F9938504000325C4FAF4
:1012EC00EFF05FD193070500B307F90013850700F2
:1012FC008320C106032481068324410603290106A9
:10130C008329C1051301010767800000130101FC4B
:10131C00232E1102232C8102232A9102232821033C
:10132C0023263103130401042326A4FC2324B4FC38
:10133C002322C4FC930400006F00C02D832784FC7F
:10134C0003C7070093075002631EF728832784FC0A
:10135C00938717002324F4FC9309000013890900D8
:10136C00832784FC83C70700638E072A832784FCAA
:10137C0003C7070093075002630AF726832784FCF0
:10138C0003C707009307D0026314F702832784FC7A
:10139C00938717002324F4FC930910006F0040017D
:1013AC00832784FC938717002324F4FC93E92900FA
:1013BC00832784FC03C7070093070003E302F7FEAF
:1013CC006F0040039307090093972700B387270109
:1013DC009397170013890700832784FC83C70700A2
:1013EC00938707FD3309F900832784FC9387170043
:1013FC002324F4FC832784FC03C707009307F00223
:10140C0063FAE700832784FC03C707009307900364
:10141C00E3FAE7FA832784FC03C707009307300736
:10142C006314F704832744FC138747002322E4FC4E
:10143C0083A0070063860000938700006F00C00044
:10144C00B70710009387C70E93860900130609008F
:10145C00938507000325C4FCEFF0DFB99307050063
:10146C00B384F4006F00401A832784FC03C7070081
:10147C0093074006631EF702832744FC138747003B
:10148C002322E4FC83A507001308100693870900A8
:10149C0013070900930610001306A0000325C4FCD3
:1014AC00EFF05FC993070500B384F4006F00C0151B
:1014BC00832784FC03C70700930750076310F704C6
:1014CC00832744FC138747002322E4FC83A70700EF
:1014DC00938507001308100693870900130709006A
:1014EC00930600001306A0000325C4FCEFF09FC474
:1014FC0093070500B384F4006F000011832784FC6C
:10150C0003C70700930780076310F704832744FC85
:10151C00138747002322E4FC83A707009385070069
:10152C00130810069387090013070900930600009F
:10153C00130600010325C4FCEFF0DFBF9307050081
:10154C00B384F4006F00400C832784FC03C70700AE
:10155C00930780056310F704832744FC1387470027
:10156C002322E4FC83A707009385070013081004CB
:10157C009387090013070900930600001306000166
:10158C000325C4FCEFF01FBB93070500B384F400E4
:10159C006F008007832784FC03C70700930730067E
:1015AC006314F706832744FC138747002322E4FCCB
:1015BC0083A7070093F7F70F230EF4FCA30E04FC8C
:1015CC009307C4FD93860900130609009385070051
:1015DC000325C4FCEFF01FA293070500B384F400AD
:1015EC006F008002130000006F00800013000000E9
:1015FC00832784FC83C70700938507000325C4FC5D
:10160C00EFF05F9893841400832784FC9387170072
:10161C002324F4FC832784FC83C70700E39007D2C0
:10162C006F008000130000008327C4FC6388070050
:10163C008327C4FC83A7070023800700938704003B
:10164C00138507008320C1030324810383244103F2
:10165C00032901038329C1021301010467800000DF
:10166C00130101FB2326110223248102130401031D
:10167C00232EA4FC2322B4002324C4002326D4004C
:10168C002328E400232AF400232C0401232E140124
:10169C0093070402232CF4FC832784FD938747FED5
:1016AC002324F4FE832784FE138607008325C4FDC0
:1016BC0013050000EFF09FC52326A4FE8327C4FE6C
:1016CC00138507008320C102032481021301010545
:1016DC0067800000130101FD2326110223248102DF
:1016EC0013040103232EA4FC232604FE6F008002A6
:1016FC008327C4FE138717002326E4FE13870700F5
:10170C008327C4FDB387E70083C707001385070051
:10171C00EFF09F838327C4FE0327C4FDB307F700B4
:10172C0083C70700E39607FC1305A000EFF0DF81E9
:10173C008327C4FE138507008320C1020324810282
:10174C001301010367800000130101FD23268102B0
:10175C0013040103232EA4FC232CB4FC0327C4FD87
:10176C00832784FDB367F70093F737006396070A66
:10177C008327C4FD2326F4FE832784FD2324F4FE53
:10178C006F0080058327C4FE03A70700B707FFFE81
:10179C009387F7EF3307F7008327C4FE83A707006F
:1017AC0093C7F7FF3377F700B787808093870708D5
:1017BC00B377F70063860700930700006F004009BA
:1017CC008327C4FE938747002326F4FE832784FED9
:1017DC00938747002324F4FE8327C4FE03A7070046
:1017EC00832784FE83A70700E30EF7F88327C4FE44
:1017FC00232EF4FC832784FE232CF4FC6F00C00101
:10180C008327C4FD93871700232EF4FC832784FDC4
:10181C0093871700232CF4FC8327C4FD83C7070090
:10182C00638C07008327C4FD03C70700832784FD4F
:10183C0083C70700E306F7FC8327C4FD83C70700B3
:10184C0013870700832784FD83C70700B307F7407E
:10185C00138507000324C1021301010367800000F4
:10186C00130101FD2326810213040103232EA4FC82
:10187C00232CB4FC232AC4FC8327C4FD2326F4FEAA
:10188C006F0080028327C4FE138717002326E4FE13
:10189C00032784FD1377F70F2380E700832744FD8C
:1018AC009387F7FF232AF4FC832744FDE39C07FC72
:1018BC008327C4FD138507000324C1021301010310
:1018CC0067800000130101FD23268102130401032C
:1018DC00232EA4FC232CB4FC8327C4FD2326F4FE66
:1018EC00832784FD2324F4FE6F00C002832784FE2B
:1018FC0003C707008327C4FE2380E7008327C4FEA9
:10190C00938717002326F4FE832784FE9387170002
:10191C002324F4FE832784FE83C70700E39807FC87
:10192C008327C4FD138507000324C102130101039F
:10193C0067800000130101FD2326810213040103BB
:10194C00232EA4FC8327C4FD2326F4FE232404FEAB
:10195C008327C4FE639C0700930700006F0080027E
:10196C00832784FE938717002324F4FE8327C4FE69
:10197C00138717002326E4FE83C70700E39207FEB4
:10198C00832784FE138507000324C102130101037E
:10199C0067800000130101FF23261100232481001E
:1019AC00130401019305000013054000EFE0DF91E3
:1019BC009305000013055000EFE01F919305000004
:1019CC0013056000EFE05F909305000013057000B5
:1019DC00EFE09F8F9305000013053000EFE0DF8EE2
:1019EC00130000008320C1000324810013010101B6
:1019FC0067800000130101FE232E1100232C8100AF
:101A0C00130401022326A4FE930500001305F00025
:101A1C00EFE09F8B930500001305E000EFE0DF8AF9
:101A2C00930500001305D000EFE01F8A930500001A
:101A3C001305C000EFE05F898327C4FE6358F000F4
:101A4C009305000013050001EFE01F880327C4FE77
:101A5C009307100063D8E700930500001305B0004E
:101A6C00EFE09F860327C4FE9307200063D8E700AE
:101A7C009305000013050000EFE01F850327C4FE4B
:101A8C009307300063D8E70093050000130510009E
:101A9C00EFE09F83130000008320C1010324810128
:101AAC001301010267800000130101FD232681024E
:101ABC0013040103232EA4FC232CB4FC232AC4FC02
:101ACC002328D4FC13070002832784FDB307F740B7
:101ADC000327C4FDB317F7002326F4FEB727101A0B
:101AEC00938787000327C4FE23A0E700B727101AAB
:101AFC009387C700032744FD23A0E700832784FDB9
:101B0C0093F6F703832704FD13978700B74700006C
:101B1C00938707F03377F700B727101A93870701DD
:101B2C0033E7E60023A0E700130000000324C10202
:101B3C001301010367800000130101FE232E8100B5
:101B4C00130401022326A4FE2324B4FE832784FE5F
:101B5C0093970701938607000327C4FEB70701007C
:101B6C009387F7FFB377F70033E7F600B727101A20
:101B7C009387470123A0E700130000000324C10151
:101B8C001301010267800000130101FD232681026D
:101B9C0013040103232EA4FCB727101A9387070103
:101BAC0083A707002326F4FE8327C4FD9397070120
:101BBC00138707008327C4FE93860700B70701002D
:101BCC009387F7FFB3F7F600B367F7002326F4FE0D
:101BDC00B727101A938707010327C4FE23A0E70039
:101BEC00130000000324C1021301010367800000ED
:101BFC00130101FE232E8100130401022326A4FEEF
:101C0C002324B4FE832784FE9387870013071000D8
:101C1C003317F700B7170000938707F0B376F70078
:101C2C008327C4FE13071000B317F70013F7F70F41
:101C3C00B727101A33E7E60023A0E70013000000D3
:101C4C000324C1011301010267800000130101FE8E
:101C5C00232E810013040102B727101A83A7070053
:101C6C002326F4FE8327C4FE138507000324C10139
:101C7C001301010267800000130101FD232681027C
:101C8C0013040103232EA4FC232CB4FC832784FD12
:101C9C0093D7574093F7F77F2326F4FE832784FDD1
:101CAC0093F7F701638807008327C4FE9387170017
:101CBC002326F4FE232404FE6F008004130000008E
:101CCC00B727101A83A7070093D7874193F7870F7D
:101CDC00E39807FE832784FE939727000327C4FD10
:101CEC003307F700B727101A9387870103270700DC
:101CFC0023A0E700832784FE938717002324F4FE98
:101D0C00032784FE8327C4FEE34AF7FA130000007E
:101D1C00130000000324C1021301010367800000BB
:101D2C00130101FD2326810213040103232EA4FCBD
:101D3C00232CB4FC832784FD93D7574093F7F77F6C
:101D4C002326F4FE832784FD93F7F70163880700AD
:101D5C008327C4FE938717002326F4FE232404FE56
:101D6C006F00800413000000B727101A83A7070028
:101D7C0093D7074193F7F70FE38807FEB727101A9D
:101D8C0013870702832784FE939727008326C4FDBD
:101D9C00B387F6000327070023A0E700832784FE00
:101DAC00938717002324F4FE032784FE8327C4FEA5
:101DBC00E34AF7FA13000000130000000324C102E9
:101DCC001301010367800000130101FF232681002A
:101DDC0013040101B737101A23A0070013000000E9
:101DEC000324C1001301010167800000130101FFEE
:101DFC002326810013040101B737101A938747007B
:101E0C001307100023A0E700130000000324C100F7
:101E1C001301010167800000130101FF23268100DB
:101E2C0013040101B737101A9387470023A007004A
:101E3C00130000000324C10013010101678000009E
:101E4C00130101FF2326810013040101B737101A77
:101E5C0083A70700138507000324C10013010101A8
:101E6C0067800000130101FE232E81001304010280
:101E7C002326A4FE938705002315F4FEB777101ACA
:101E8C009387470003A70700B777101A938747007B
:101E9C001367270023A0E700B707101A9387C70022
:101EAC001307300823A0E7008357A4FE93D78700BD
:101EBC009397070193D7070113870700B707101AE9
:101ECC00938747001377F70F23A0E7000357A4FE6F
:101EDC00B707101A1377F70F23A0E700B707101AEC
:101EEC00938787001307700A23A0E700B707101A1F
:101EFC009387C7001307300023A0E700B707101A19
:101F0C009387470083A7070013F7070FB707101A2B
:101F1C00938747001367270023A0E70013000000F6
:101F2C000324C1011301010267800000130101FDAC
:101F3C002326810213040103232EA4FC232CB4FCBE
:101F4C006F00800613000000B707101A9387470133
:101F5C0083A7070093F70702E38807FE232604FEF6
:101F6C006F0040038327C4FD13871700232EE4FC66
:101F7C0003C70700B707101A23A0E700832784FDC7
:101F8C009387F7FF232CF4FC8327C4FE9387170059
:101F9C002326F4FE0327C4FE9307F00363E6E70051
:101FAC00832784FDE39007FC832784FDE39C07F8DB
:101FBC0013000000130000000324C10213010103ED
:101FCC0067800000130101FF232681001304010127
:101FDC0013000000B707101A9387470183A7070067
:101FEC0013F7170093071000E316F7FEB707101A44
:101FFC0083A7070093F7F70F138507000324C1008D
:10200C001301010167800000130101FE232E8100E2
:10201C001304010293070500A307F4FE130000004C
:10202C00B707101A9387470183A7070093F7070296
:10203C00E38807FEB707101A0347F4FE23A0E70056
:10204C00130000000324C10113010102678000008A
:10205C00130101FF2326810013040101130000006A
:10206C00B707101A9387470183A7070093F7070454
:10207C00E38807FE13000000130000000324C100D6
:10208C001301010167800000130101FE232E1100D2
:10209C00232C8100130401022326A4FE0325C4FE75
:1020AC00EF0080006F000000130101FE232E810061
:1020BC00130401022326A4FE8327C4FE638C0700AD
:1020CC00B777101A938747011307100023A0E70076
:1020DC006F000001B777101A9387470123A0070000
:1020EC00B777101A9387470003A70700B777101A22
:1020FC00938747001367470023A0E70013000000F5
:10210C000324C1011301010267800000130101FDCA
:10211C002326810213040103232EA4FC232604FE90
:10212C006F004001130000008327C4FE9387170043
:10213C002326F4FE8327C4FD0327C4FEE344F7FEE5
:10214C0013000000130000000324C102130101035B
:10215C0067800000130101FE232E1100232C810047
:10216C00130401022326A4FE2324B4FEB707100097
:10217C001385470FEFF00FD6130000008320C10129
:10218C00032481011301010267800000130101FD8A
:10219C00232611022324810213040103232EA4FC01
:1021AC00232604FE0327C4FD9307F00063E0E70E2B
:1021BC008327C4FD13972700B70710009387471395
:1021CC00B307F70083A7070067800700F3270078A1
:1021DC002326F4FE6F00C00CF32710782326F4FEA0
:1021EC006F00000CF32720782326F4FE6F00400BC1
:1021FC00F32730782326F4FE6F00800AF32740780B
:10220C002326F4FE6F00C009F32750782326F4FE32
:10221C006F000009F32760782326F4FE6F00400856
:10222C00F32770782326F4FE6F008007F32780785D
:10223C002326F4FE6F00C006F32790782326F4FEC5
:10224C006F000006F327A0782326F4FE6F004005EC
:10225C00F327B0782326F4FE6F008004F327C078B0
:10226C002326F4FE6F00C003F327D0782326F4FE58
:10227C006F000003F327E0782326F4FE6F00400282
:10228C00F327F0782326F4FE6F0080018325C4FD2C
:10229C00B707100013858711EFF08FBC13000000F7
:1022AC008327C4FE138507008320C1020324810207
:1022BC001301010367800000000000000000000013
:0822CC0000000000000000000A
:020000040010EA
:10000000303132333435363738394142434445464E
:1000100068656C6C6F20776F726C64210A00000059
:100020006D79766572203D2025640A006D797661D0
:1000300072203D2025640A0052656C65617365205D
:10004000506F77657220646F776E202F204465763D
:100050006963652049440A000A0000004A45444596
:10006000432049440A00000020200A004D616E75BB
:1000700066616374757265722F4465766963652085
:1000800049440A0045726173696E6720626C6F6350
:100090006B20302E2E2E0000446F6E65206572613D
:1000A00073696E6720626C6F636B2E0057726974A0
:1000B000696E672030783132333435363738207402
:1000C0006F206164647265737320302E2E2E0000E1
:1000D00057726974696E6720646F6E652E00000048
:1000E000526561643A20253038780000286E756CBE
:1000F0006C2900006370755F706572665F7365746C
:100100003A206E6F7420696D706C656D656E7465F4
:100110006420796574000000435352202564206EEA
:100120006F742079657420737570706F7274656474
:100130000A000000D8210000E4210000F0210000A6
:10014000FC210000082200001422000020220000F0
:100150002C2200003822000044220000502200001F
:100160005C2200006822000074220000802200004F
:040170008C220000DD
:100174000001020203030405050607070808090035
:040184003500000042
:040000030000008C6D
:00000001FF
